:020000040800F2
:10300000405A002039470008296200082D62000854
:1030100031620008356200083962000800000000D3
:1030200000000000000000000000000041620008F5
:103030003D62000800000000C56200080963000846
:103040003547000835470008354700083547000870
:103050003547000835470008ED46000835470008A9
:103060003547000835470008A546000835470008E1
:103070003547000835470008354700083547000840
:103080003547000835470008354700083547000830
:10309000114300083547000835470008F54500088A
:1030A0003547000835470008354700083547000810
:1030B000254F000835470008354700083547000808
:1030C00035470008354700083547000835470008F0
:1030D00035470008354700083547000835470008E0
:1030E00035470008354700083547000835470008D0
:1030F00035470008354700083547000835470008C0
:1031000035470008354700083547000835470008AF
:10311000354700083547000835470008354700089F
:10312000354700083547000835470008354700088F
:103130005FF808F108B538B1064B1B681B68984763
:10314000054B18680A3008BD034B01221B681A8220
:1031500008BD00BF4C5400205054002008B538B1C1
:10316000064B1B689B689847054B18680C3008BDD8
:10317000034B01221B681A8208BD00BF4C5400207B
:103180005054002008B51F4B002832D01E481A6842
:1031900000210180137813F07F0316D0012B27D074
:1031A000022B24D1527902F00F039B0003F18043DC
:1031B00003F5B84312061B681FD403F44053B3F55C
:1031C000805F0ED1012303700BE0527A930654BF47
:1031D0000378022351064CBF43F0010323F001039F
:1031E00003700A4B1B681B699847074808BD0846CF
:1031F00008BD1B6802221A8208BD03F03003102BA1
:10320000EFD1DFE750540020F05300204C54002051
:103210002DE9F041244F3C68258A2DB9267A042EE9
:103220002AD0A38A042603E0A38A9D42FAD9022663
:103230009D4228BF1D46A369284698478046002026
:1032400001F070FB2A460146404603F025FD294661
:10325000002001F083FB638A228A1449521B1D441B
:10326000134B2282658230204FF440523C68088024
:103270001A802672BDE8F0810E4B1A78012A06D01A
:103280000A4B0726102226721A80BDE8F0810A49EF
:103290000A4A0968054889B20A445200302115607B
:1032A0001D700180E5E700BF50540020225400202B
:1032B00020540020B80A0020505C0040023000205A
:1032C00038B52F4B1B68187810F07F0003D0022808
:1032D00006D0022038BD5A7A22F020025A7238BD38
:1032E0005A88002AF6D11A79002AF3D15A7922F0A5
:1032F00080008400150604F18044224D04F5B84492
:1033000021682D784CBF01F0300101F44051A842F2
:10331000DFD20029DDD09B7A002BDAD01206236899
:1033200009D503F03003102B1ED0174B1B685B69C7
:103330009847002038BD03F44053B3F5805FF4D1C3
:10334000D8B9124B93F82C1001F016FB236823F424
:10335000804323F070039BB283F4405343F4004353
:1033600043F080032360E0E7C4B2204601F0A8FAEE
:103370002046302101F01CFAD7E701F08FFAE5E78B
:1033800050540020040100204C54002080000020F4
:1033900038B5204B1C68617921F0800083000D0650
:1033A00003F180431C4D03F5B8431A682D784CBFD8
:1033B00002F0300202F44052A84201D3022038BD8C
:1033C00060880028FAD1002AF8D0A27A002AF5D025
:1033D00009061A6811D522F4E04222F0400292B2A6
:1033E00082F0100242F4004242F080021A600B4B5D
:1033F0001B689B699847002038BD22F4804222F068
:10340000700292B282F4805242F4004242F0800292
:103410001A60ECE750540020040100204C540020B6
:10342000054B1B685A8A10B1086810447047898898
:103430008A1A1A82704700BF50540020F0B5A84E77
:10344000A84B34681A68237A83B0092B39D0A64B6D
:1034500092B213445B001D886D0005F1804505F5AF
:10346000C0452B7823706B786370A88801F0B6FA9A
:1034700060802889346801F0B1FAA080AB89346893
:103480000122E38022720BB36078062800F091805D
:1034900000284BD16188002900F0A380934D2B6850
:1034A0001B699847032800F013814FF6FF713368BA
:1034B0001A8A8A4200F09280022847D108221A72A2
:1034C0001CE0E38801222272002BDDD1237867788B
:1034D00013F07F0347D0012B00F0CF80022B00F0C8
:1034E0002B81824D2B6838465B699847032800F092
:1034F0005681346800284FD0082323727C4B00206B
:1035000093F82C1001F038FA3368187A082806D19D
:103510007849794B4FF4805410220C801A80A0F126
:103520000900B0FA80F0400903B0F0BD08286AD164
:1035300023785B06B2D1714B0020A361608298476B
:103540004FF6FF7133681A8A8A4247D0002AB5D0F5
:1035500093F90010002979DB66494FF440500322AB
:1035600008801A72CAE7092F00F00181052F00F0C8
:10357000D180032F00F0E980012FB2D1E378012B35
:10358000AFD1A388002BACD1637A9B06A9D5FFF7F6
:1035900097FE0028A5D13468524A594B1268564903
:1035A00092B213445B0000203022186006230A8088
:1035B000A3E723785D067FF471AFA3784B4D012B11
:1035C00000F0EA80022B00F08780032B7FF467AFC6
:1035D0002B685B6A002BAFD1062060E709221A72C4
:1035E0008CE7636823F47F43B3F5003F7FF456AF65
:1035F000207810F07F0040F0D580A388002B7FF466
:103600004DAF404B98E70A287FF448AF237803F08A
:103610007F03012B7FF442AFA37A002B3FF43EAF30
:10362000618800297FF43AAF6368304D23F47F430B
:10363000B3F5803F7FF433AF2B6860799B6998477F
:10364000002840F0EF8034682F4B75E7D98801914E
:103650000198824235D8914240F2AB8023490968F3
:1036600091F82C0081B2914240F2A880274A0020B4
:1036700010709982FFF7CCFD40E70B2F1B4D7FF4B4
:1036800031AF2B68E17860799B6998473368144CB7
:103690009A7A002A3FF426AF00287FF423AF1A79E4
:1036A000002A7FF41FAF9B78002B7FF41BAF184BD1
:1036B0001B68DB68984724686279E378E2722373B9
:1036C0006AE70A4A01991268198292F82C10D0E729
:1036D000336809221A7211E72B681B6A7AE700BF68
:1036E00050540020505C004004300020285400203A
:1036F0008000002020540020225400203531000892
:1037000002300020853100085D310008B80A002031
:103710004C54002094F90330002BFFF6EDAEA37853
:10372000002B7FF4E9AEA388002B7FF4E5AEA37AEB
:10373000002B3FF431AFDFE6012F3FF428AF032F1A
:103740007FF4CFAEFFF724FE23E7E378012B7FF46D
:10375000C8AEA388002B7FF4C4AE637A334A43F02B
:10376000200312686372D3699847346814E7304ABB
:10377000E37852789A42FFF4B4AEA278002A7FF43C
:10378000B0AEA288002A7FF4ACAE284AA3721368B8
:103790005B6898473468FFE62B68DB691AE7346892
:1037A0000923AAE6012830D0022812D00846214D6C
:1037B00075E6204A126892F82C105AE792FBF0F452
:1037C00000FB1422002A7FF454AF1B4A0120107022
:1037D0004FE7607900F00F029300010603F1804388
:1037E000134903F5B8431B6809784CBF03F0300355
:1037F00003F440538A4206D210F0700003D1002B2C
:103800007FF4FFAE4AE6002048E60A4D60792B6857
:103810009B69984730B93468A37A002B7FF4F1AEE6
:1038200060783CE63368587839E600BF4C54002095
:103830000401002028540020B80A0020F8B5284CC4
:1038400023681A7A022A26D0042A24D0062A18D0FD
:103850000821244A1972002092F82C1001F08CF8EB
:103860002368187A082806D11F49204B4FF480544A
:1038700010220C801A80A0F10900B0FA80F04009F3
:10388000F8BD5A78052A0BD0194B1B689B689847DE
:1038900023680821DDE7FFF7BBFC2368197AD8E726
:1038A0001A7812F07F02EFD11249DF780E7876B1E4
:1038B000114840F60F71056842F40043294043F077
:1038C000800301320B43964240F8043BF1D10B4B8D
:1038D0000B4A1B6847F0800717601B6A9847D3E7BD
:1038E000505400208000002020540020225400204A
:1038F0002854002004010020005C00404C540020AB
:103900004C5C0040F8B5394D2C68237A022B07D067
:10391000042B05D0032B1CD0052B1AD0072B45D028
:103920000823334A2372002092F82C1001F024F867
:103930002B68187A082806D12E492F4B4FF4805453
:1039400010220C801A80A0F10900B0FA80F0400922
:10395000F8BDA369228AB3B1B2B1A68A964228BF44
:10396000164630469847228A638A921B334407469C
:1039700022826382002000F0E3FF3246014638468F
:1039800003F09EF9228AC2B9A38A2BB31A492C6884
:1039900006221A4B22721A68194B92B213445B002A
:1039A00000221A603022237A0A80BAE7154B1B687E
:1039B000DB6898472C680823B3E70E4B00214FF4CF
:1039C000405208461A8000F0C9FF238AA28A0A4999
:1039D00030209A42088003D82C6803232372A0E782
:1039E000002BD4D02C68052323729AE75054002072
:1039F000800000202054002022540020505C004011
:103A0000023000202854002070B40C4B1E787EB188
:103A10000B4C002240F60F71256842F40043294008
:103A200043F0800301320B43964244F8043BF1D14A
:103A3000044B40F08000186070BC70470401002007
:103A4000005C00404C5C0040704700BF038A8289E4
:103A500011EA030092B203D0114214BF01200020EA
:103A6000704700BFC94389B20182704703F054BA5E
:103A700003F0B0BAF0B5044685B004AD002605F8F1
:103A8000016D01232A460093332123231A488DF820
:103A90000E6000F0AFFA62782178A7782379E67893
:103AA000114362799DF80E001E4339439DF80F3093
:103AB000A77946EA0204012F43EA040341EA000120
:103AC0004FF001060CBF43F0080403F0F0048DF83A
:103AD0000E100DF10E0200962023332106488DF8BA
:103AE0000F4000F063FB00962A462323332102484F
:103AF00000F05CFB05B0F0BD005800400278417852
:103B0000C378012A027970B543EA01030CBF43F080
:103B1000080303F0F703012A42790CBF43F00403C2
:103B200003F0FB03012A827984B086780CBF43F04E
:103B3000020303F0FD030125012A0CBF43F0010439
:103B400003F0FE040DF10E020095212333210848F5
:103B50008DF80F608DF80E4000F028FB00952623AD
:103B60000DF10F023321024800F020FB04B070BDBC
:103B700000580040F0B5022387B0009303AA232326
:103B800033210446294800F035FA0623009304AA9D
:103B900028233321254800F02DFA9DF80D305A06D0
:103BA0001DD540259DF814209DF911709DF8100039
:103BB0009DF913609DF812109DF9153000EB072058
:103BC00001EB062102EB032390FBF5F091FBF5F2EC
:103BD00093FBF5F320806280A38007B0F0BD9DF8D1
:103BE0000C305B0601D41025DCE79DF811309DF9FF
:103BF00010109DF9122013EB012148BF0F319DF8E1
:103C00001330091113EB022221809DF815309DF924
:103C1000141048BF0F3213EB012348BF0F331211AA
:103C20001B116280A38007B0F0BD00BF00580040A8
:103C300030B587B0044604A8FFF79CFF0223009329
:103C400003AA232333211C4800F0D4F99DF80D303A
:103C50005B060CD49DF80C3003F03003102B22D0FF
:103C600024D9202B03D0302B03D1144D01E04FF089
:103C70007A55BDF9100008F027FD294608F02CFE02
:103C80002060BDF9120008F01FFD294608F024FE4F
:103C90006060BDF9140008F017FD294608F01CFE0D
:103CA000A06007B030BD4FF07C55E2E7002BE0D1BB
:103CB0004FF07E55DDE700BF005800409FCDAA3D84
:103CC00070B5C278037884B0012A8DF80C3046783C
:103CD00008BF63F07F0385784FF0020408BF8DF8BA
:103CE0000C3003AA009400233D2109488DF80D6093
:103CF0008DF80B5000F05AFA0122009223460DF184
:103D00000B023D21024800F051FA04B070BD00BF23
:103D1000005800402DE9F04F012387B000930DF1CA
:103D20000F023D2106463D4800F064F9062300934A
:103D300004AA03233D21394800F05CF99DF80F30B7
:103D40009DF812A003F0E003802B9DF813409DF82E
:103D500014B09DF815505CD037D9C02B4AD0E02B59
:103D60003ED0A02B4BD0002008F0AEFC80460020B7
:103D700008F0AAFC81469DF811309DF810004FF420
:103D80007A7703EB002000B207FB00F008F09CFC00
:103D9000494608F0A1FD05EB0B252DB2306007FB6D
:103DA00005F008F091FC494608F096FD04EB0A2462
:103DB00024B2706007FB04F008F086FC414608F06E
:103DC0008BFDB06007B0BDE8F08F402B1CD0602B9E
:103DD0000BD0202BC7D1DFF84890DFF84880CAE726
:103DE000DFF84490DFF84480C5E7DFF84490DFF85F
:103DF0004480C0E7DFF84090DFF84080BBE7DFF8A1
:103E00004090DFF84080B6E7DFF83C90DFF83C8078
:103E1000B1E7DFF83C90DFF82880ACE700580040BD
:103E200000808944000075440000664300004D4353
:103E300000802744000016440000A54300809343FF
:103E40000000C8430080B14300C0554400003E4418
:103E50000000E143F0B5044687B00D46092001217A
:103E600001F018FD594B01219C4235D0022000F091
:103E7000C3FF4FF4407601214FF4001001F018FD0C
:103E8000ADF804604BF6FF7603221C2301A95048CD
:103E90008DF806208DF8073000F0BEFD06A94FF41E
:103EA000804341F8105D4FF4806200252046ADF854
:103EB0001430ADF81220ADF80E60ADF80C50ADF82E
:103EC000105002F0F9FD0121204602F067FE414B3F
:103ED0009C4255D007B0F0BD4FF480004FF44066CF
:103EE00001F0E6FCADF804604BF6FF7603221C23DC
:103EF00001A937488DF806208DF8073000F08CFDB9
:103F0000ADF80E604FF6FF7606A94FF480624FF4CD
:103F1000804341F8105D20460025ADF81220ADF831
:103F20001430ADF80C50ADF8105002F0C5FD20462D
:103F3000012102F033FE0121084601F09DFC264CD0
:103F4000264B4FF44052802110272548626223609F
:103F5000616165602561A561E5612562A562A76073
:103F6000E66002F05FFA21461D4802F0EFFA1D48B4
:103F700002F058FA21461B4802F0E8FA07B0F0BDFB
:103F80004FF6FF770121084601F076FC124C164BE4
:103F90004FF4405280211026144862622360616110
:103FA000E76065602561A561E5612562A562A6609F
:103FB00002F038FA21460D4802F0C8FA0C4802F027
:103FC00031FA21460A4802F0C1FA83E7005800405E
:103FD000000C014000540040F453002010580040F1
:103FE0004400024058000240105400406C0002405F
:103FF000800002402DE9F041044682B0002000908C
:104000000190A0889DF8207080B240F48070012F4C
:104010001E460D469046A08088BF43F0800672B6CB
:104020004FF40031204602F01BFE0028F8D1012198
:10403000204602F0CFFD5449204602F003FE00283E
:10404000F9D000222946204602F0F0FD4F492046D3
:1040500002F0F8FD0028F9D00121204602F09EFD73
:104060003146204602F0E0FD4949204602F0EAFDD3
:104070000028F9D0474B484E00219C42C6F80480E6
:10408000F760B16071D0454B4548336002F07EFA6D
:104090003146434802F05AFA0121414802F076FACB
:1040A000A38820469BB243F48053A380012102F0F1
:1040B00083FD4FF6FF7301212046019302F08AFD34
:1040C00004E0019B5A1E0192002B3CD02E49204651
:1040D00002F0B8FD0028F4D04FF6FF732946012204
:1040E0002046019302F0A2FD03E0019B5A1E0192BB
:1040F0004BB32C49204602F0A5FD0028F5D0238BB8
:10410000244A9BB29442009320D04FF0007002F0FA
:1041100049FA0028F9D02248002102F037FA4FF07E
:10412000007002F04DFA0021204602F06FFD0121DF
:10413000204602F05DFD23889B05FCD4204601212A
:1041400002F064FD62B602B0BDE8F0814FF40030C9
:1041500002F028FA0028F9D00021134802F016FADC
:104160004FF4003002F02CFADDE710330E483360D4
:1041700002F00CFA31460C4802F0E8F901210A4835
:1041800002F004FA8CE700BF010003008200070080
:104190008400070000580040F453002010540040F1
:1041A0008000024002000300580002402DE9F04167
:1041B000DFF858810446404682B09DF82050002721
:1041C000012D88BF43F0800300F8013B0E461146E5
:1041D0002A460097019708F0BDFC4FF6FF71A388AF
:1041E000424A9BB2424F43F48073A38001351023AF
:1041F0009442C7F80480FD60BB60019167D03D4BDD
:1042000000213D483B6002F0C1F939463A4802F0CE
:104210009DF90121384802F0B9F92046012102F048
:10422000CBFC0121204602F0D5FC04E0019B5A1E84
:104230000192002B39D03149204602F003FD0028BD
:10424000F4D04FF6FF73314600222046019302F06E
:10425000EDFC03E0019B5A1E019233B3284920462E
:1042600002F0F0FC0028F5D0238B204A9BB2944248
:1042700000931DD04FF4001002F094F90028F9D0FB
:104280001D48002102F082F94FF4001002F098F965
:104290001C49204602F0D6FC0028F9D00121204616
:1042A00002F0A6FC23889B05FCD402B0BDE8F08197
:1042B0004FF4005002F076F90028F9D0002112489E
:1042C00002F064F94FF4005002F07AF9E0E7134489
:1042D00000210D483B6002F059F939460A4802F0C6
:1042E00035F90121084802F051F996E700580040DD
:1042F000F4530020105400406C0002400100030001
:10430000820007008400070044000240BC0A00202D
:1043100070B5134C9CB001F00FFF2368022B1CD921
:104320001CAE1A460F490DF1090006F8683D08F069
:1043300011FC0D4800251CAA31462B4642F86C5D45
:10434000806E01268DF86D6001F0F0FF019B256005
:104350001BB1064B4FF080521A601CB070BD00BFFD
:10436000900C0020A8550020880B002004ED00E0F0
:104370002DE9F043002385B0DFF86491DFF86C810C
:10438000534EADF80E30D8F80030524C9AB213F4B8
:10439000004F514F514DA9F8002051484C4900F0B1
:1043A0008B80038803F00F039A0002F1804202F52C
:1043B000B8422B70002B2FD14BF6BF73226892B2FC
:1043C0003280328802F030023A80328802F4405261
:1043D00032802268134083F4005383F0200343F4B7
:1043E000004343F0800323600388D8063CD523684C
:1043F0009BB2ADF80E30BDF80E301A055FD4BDF893
:104400000E301B04BFD540F68F7322680191134014
:104410002360FFF777FA2FE0116889B2ADF80E102C
:10442000BDF80E10090414D4BDF80E301B06AAD531
:1044300048F60F712A782B48930003F1804303F567
:10444000B8431C68013A2140196050F8223098475F
:1044500099E740F68F71146823482140013B50F8DA
:10446000233011609847DFE748F60F732268019107
:1044700013402360FFF7E2F94BF6BF730199206800
:104480000A880340D6040A8848BF83F48053950401
:104490003A8848BF83F40053D4063A8848BF83F073
:1044A0001003900648BF83F0200343F4004343F019
:1044B0008003084A9BB2136005B0BDE8F08340F664
:1044C0008F732268019113402360FEF7B7FFD3E793
:1044D00020540020005C0040225400202C54002076
:1044E000E85500203C00002020000020445C0040F3
:1044F0003C4B30B418683C4940F0010018605D68DE
:1045000082B0294059601968002021F0847121F49B
:104510008031196019684FF41F0421F4802119605B
:1045200059681A4621F4FE0159609C600090019080
:10453000196841F48031196003E0009BB3F5A06F66
:1045400009D0136803F400330193009B01330093F7
:10455000019B002BF1D0234B1B6813F4003318BFD1
:1045600001230193019B012B06D0204B4FF00062E9
:104570009A6002B030BC70471D4A1A4B1068194649
:1045800040F010001060106820F003001060106808
:1045900040F0020010605A685A605A685A605A68BF
:1045A00042F480625A605A6822F47C125A605A6857
:1045B00042F4E8125A601A6842F080721A600B687E
:1045C000084A9B01FBD51146536823F0030353604F
:1045D000536843F0020353604B6803F00C03082B4D
:1045E000FAD1C2E7001002400000FFF800ED00E041
:1045F0000020024000B5202083B001F0E1F920B98D
:10460000402001F0DDF900283BD02448002302AA15
:1046100042F8043D1946406801F088FE202001F070
:10462000CFF9D0B9402001F0CBF9F0B9802001F0EA
:10463000C7F910BB4FF4807001F0C2F940B9019B7B
:104640001BB1174B4FF080521A6003B05DF804FBAA
:104650004FF4807001F0C2F9F1E7202001F0BEF9BB
:10466000402001F0ADF90028E0D0402001F0B6F97B
:10467000802001F0A5F90028DCD0802001F0AEF9FF
:10468000D8E7802001F09CF90028BED14FF480705B
:1046900001F096F90028B8D1D7E700BF5C0C0020E4
:1046A00004ED00E000B5102083B001F089F910B9E5
:1046B00003B05DF804FB0B48002302AA42F8043D56
:1046C0001946406801F032FE102001F087F9019B85
:1046D000002BEDD0044B4FF080521A6003B05DF810
:1046E00004FB00BF5C0C002004ED00E000B50120DD
:1046F00083B001F065F910B903B05DF804FB0B4815
:10470000002302AA42F8043D1946406801F00EFE5B
:10471000012001F063F9019B002BEDD0044B4FF019
:1047200080521A6003B05DF804FB00BF5C0C0020EF
:1047300004ED00E0FEE700BF08B50D480D4B9842C0
:1047400007D2C2431A4422F0030204320A4908F095
:1047500001FA0A480A494FF000028842B8BF40F8FF
:10476000042BFADBFFF7C4FEBDE8084000F0E0BC14
:1047700000000020B80A002014130108B80A002025
:10478000405600204FF6F873014A0340136070470B
:10479000505C0040800000F1804000F5B8400368A4
:1047A00023F4EC4323F07003194389B2016070478E
:1047B000800000F1804000F5B8400368CA0623F489
:1047C000E04323F040039BB248BF83F010038A0606
:1047D00048BF83F0200343F4004343F080030360A9
:1047E000704700BF800000F1804000F5B8400368CA
:1047F000CA0423F4804323F070039BB248BF83F4C0
:1048000080538A0448BF83F4005343F4004343F0C9
:1048100080030360704700BF800000F1804000F516
:10482000B840006800F03000704700BF800000F121
:10483000804000F5B840036823F4E04323F04003D0
:104840009BB283F0300343F4004343F080030360E2
:10485000704700BF800000F1804000F5B840036859
:1048600023F4804323F070039BB283F4405343F45A
:10487000004343F080030360704700BF40F60F62BF
:10488000800000F1804000F5B8400368134043F415
:10489000004343F080030360704700BF800000F1D5
:1048A000804000F5B84003685B0408D540F60F73FC
:1048B0000268134043F4404343F0800303607047B1
:1048C000800000F1804000F5B84003685B0608D521
:1048D00040F60F730268134043F4004343F0C003F3
:1048E00003607047064B49081B6849009BB203EB05
:1048F000C00000F1005000F54050400001607047DA
:10490000505C0040054A064B1268490892B202EB1F
:10491000C000034449005B0019607047505C0040D0
:1049200004300020054B1B689BB203EBC00000F174
:10493000005000F54050400000887047505C004037
:10494000044A054B126892B202EBC00003445B00BC
:1049500018887047505C004004300020044A054B22
:10496000126892B202EBC00003445B00196070470A
:10497000505C0040023000200E4A0F4B12683E2966
:1049800092B202EBC00003444FEA43030AD94A093A
:10499000C80604BF02F1FF3292B2920242F4004212
:1049A0001A6070474A08C90748BF013292021A606C
:1049B000704700BF505C004006300020054A064B9F
:1049C000126892B202EBC00003445B001868C0F3A7
:1049D00009007047505C004006300020C3B2000A56
:1049E00040EA0320704700BF38B5012001F0CAF942
:1049F000064D074B074C00224FF4E0510120186090
:104A00001A6010462A602180196038BD445C00405D
:104A1000405C00405454002030B4CD78EB0648BFD1
:104A20008B7805F00F0448BF1C430B8813F0FF0F71
:104A300033D0482D026800F09980282D00F0FB80CB
:104A4000D90744BF22F00F022243990744BF22F046
:104A5000F00242EA0412590744BF22F4706242EAAB
:104A60000422190744BF22F4704242EA0432D906F4
:104A700044BF22F4702242EA0442990644BF22F461
:104A8000700242EA0452590644BF22F0706242EAC0
:104A90000462190600F19F800260FF2B31D9282D96
:104AA000426830D0482D00F09980D90544BF22F0EB
:104AB0000F0222439D0544BF22F0F00242EA041295
:104AC000590544BF22F4706242EA04221D0544BF26
:104AD00022F4704242EA0432D90444BF22F4702224
:104AE00042EA04429D0444BF22F4700242EA0452A6
:104AF000590444BF22F0706242EA04621B0467D486
:104B0000426030BC704703F4807189B2002940F0E4
:104B1000118103F4007189B2002940F0058103F48A
:104B2000806189B2002940F0F98003F4006189B204
:104B3000002940F0ED8003F4805189B2002940F053
:104B4000E18003F4005189B2002940F0D58003F4DC
:104B5000804189B2002940F0C98003F400439BB230
:104B6000002BCDD064F31F724361C9E713F001013C
:104B700040F0038103F0020189B2002940F0F78080
:104B800003F0040189B2002940F0EB8003F0080132
:104B900089B2002940F0DF8003F0100189B20029BA
:104BA00040F0D38003F0200189B2002940F0C78093
:104BB00003F0400189B2002940F0E48003F0800155
:104BC00089B200293FF468AF64F31F72016163E7A3
:104BD00064F31F7294E764F31F725DE703F480715E
:104BE00089B200296BD103F4007189B2002960D128
:104BF00003F4806189B2002955D103F4006189B2C0
:104C000000294AD103F4805189B2002962D103F40A
:104C1000005189B2002957D103F4804189B200299B
:104C20005ED103F400439BB2002B3FF469AF64F301
:104C30001F72036164E713F0010140F0CD8003F0BF
:104C4000020189B2002940F0C18003F0040189B259
:104C5000002940F0B58003F0080189B2002940F036
:104C6000A98003F0100189B2002940F09D8003F073
:104C7000200189B2002940F0918003F0400189B2FF
:104C8000002940F0858003F0800189B200293FF4BB
:104C900003AF64F31F724161FEE622F4704242EA00
:104CA00004320161AEE722F4706242EA042201613B
:104CB000A3E722F0F00242EA0412016198E722F031
:104CC0000F02224301618EE722F4700242EA04528D
:104CD0000161A1E722F4702242EA0442016196E7F1
:104CE00022F0706242EA046201619AE722F0706287
:104CF00042EA0462416130E722F4700242EA04525F
:104D0000416124E722F4702242EA0442416118E73B
:104D100022F4704242EA043241610CE722F47062EC
:104D200042EA0422416100E722F0F00242EA041262
:104D30004161F4E622F00F0222434161E9E622F4E8
:104D4000700242EA0452016132E722F4702242EA20
:104D50000442016126E722F4704242EA0432016112
:104D60001AE722F4706242EA042201610EE722F09F
:104D7000F00242EA0412016102E722F00F0222432C
:104D80000161F7E622F0706242EA0462016115E710
:104D900022F0706242EA0462416174E722F4700218
:104DA00042EA0452416168E722F4702242EA044276
:104DB00041615CE722F4704242EA0432416150E70B
:104DC00022F4706242EA0422416144E722F0F002D8
:104DD00042EA0412416138E722F00F0222434161A6
:104DE0002DE700BF8368194214BF012000207047DF
:104DF00001617047416170470028194B00F440126F
:104E0000B4BFDB695B68B2F5401F30B484B21ED01A
:104E1000C20213D5C0F303450322AA4023EA0203CA
:104E200043F0706319B1420D1201944023430C4AC0
:104E30000028B4BFD361536030BC7047420D1201EB
:104E400004FA02F223EA020343F07063EAE7044D36
:104E500023F070636A6822F070626A60E2E700BF64
:104E60000000014001F0FC0303F1804303F58033AF
:104E700001F0030110B489009C680F228A4024EAE3
:104E800002029A609A6888401043986010BC70478C
:104E900070B4074A074E084C084B022508490948D8
:104EA0001572236032601B68086070BC184700BF31
:104EB000305400205054002028540020800000204E
:104EC0004C540020E0000020F8B5154D00242427A4
:104ED000002621463A4605F12C00EC602C61AC60BE
:104EE0006C612C626C67C5F88040AC61EC616C62EF
:104EF000AC62AC67EC67C5F88440C5F888402C60AC
:104F00006E6007F001FF3A46214605F1500007F0B8
:104F1000FBFEC5F88C60C5F89060C5F89460F8BDDC
:104F2000EC54002008B501214FF08040FEF78EFDC3
:104F300000B908BD044A0123194613704FF08040A0
:104F4000BDE80840FEF78EBD6C0C00202DE9F04F47
:104F5000824683B0506815460C4606F07FFF064631
:104F60000F4604F077FE804689463046394604F005
:104F7000B9FE06460F464046494607F09BFA2168AF
:104F800007F0F6FB39468046304607F093FAA168F1
:104F900007F0EEFB0146404607F0E0FACAF80000D1
:104FA000686806F05BFF02460B46CDE9002304F07B
:104FB00099FE064628680F4606F050FF804689464F
:104FC00004F090FE07F076FA49468346404604F026
:104FD00041FEDDE90023804689461046194604F06B
:104FE00039FE02460B4630463946CDE9002307F02C
:104FF00061FA594607F0BCFB216807F0B9FB494646
:105000000646404607F056FA616807F0B1FB0146D4
:10501000304607F0A5FADDE900230646194610469A
:1050200007F048FA594607F0A3FBA16807F0A0FB78
:105030000146304607F094FACAF80400686806F0A2
:105040000DFF02460B46CDE9002304F04BFE064659
:1050500028680F4606F002FF8046894604F0FAFDF4
:1050600007F028FA49460546404604F03BFEDDE9D4
:105070000023804689461046194604F0EBFD02469F
:105080000B4630463946CDE9002307F013FA29468E
:1050900007F06EFB216807F06BFB49460646404669
:1050A00007F008FA616807F063FB0146304607F035
:1050B00055FADDE9002306461946104607F0FAF9CD
:1050C000294607F055FBA16807F052FB0146304620
:1050D00007F046FACAF8080003B0BDE8F08F00BF39
:1050E000114B00224FF07E510020186719661A609C
:1050F0005A609A60DA601A615A615A629A62DA6298
:105100009A61DA611A62DA631A645A649A64DA6438
:105110001A655A659A65DA651A635A639A635A661C
:105120009A66DA66704700BF7454002000000000E1
:105130002DE9F04F4FF440518FB04FF0006001F077
:1051400089FA002000F03AFF564E00F0DBFD564D84
:10515000002401E0AC420FD0A6FB0423DB0BC3EB21
:1051600003439C4204F10104F4D1504800F0A0FE36
:1051700000F0D2FEAC42EFD14D4D4E4ADFF86CC18B
:10518000DFF86CE14C4EDFF86C914C4F002302F1DC
:1051900010012846C5F880C0C5F888E06B67AB678A
:1051A000C5F88430C5F87C906F60C5F88C60C5F890
:1051B000906001F02FFF42494248FEF74BFE424803
:1051C00001F052FA414B424E424F00244FF0700E14
:1051D0000122184614214FF040094FF0070B4FF001
:1051E000100A83F801E01C70DC701C7183F802B0B7
:1051F0009A71FA70397083F80590BC7034707470CD
:10520000B47034717471B47186F803A087F801909A
:10521000FEF730FC3046FEF771FC3846FEF750FDD5
:105220002D4B80221846082183F802B083F803A092
:10523000197083F8019083F805901A7100F0E8FE68
:10524000FFF74EFFFFF740FE2146204600F03EFBF1
:105250002046A04600F0B2FEDFF89CB004941F4F39
:105260001F4CDFF884A01F4E002000F05FFB10B938
:10527000049B002B42D0002000F058FB18B9049B7F
:10528000002B40F04B82B8F1000F40F04782049BA6
:10529000002B3DD10020804600F0B2FECDF81080FA
:1052A000E2E700BF01800080FFFF0F00840C0108CF
:1052B000EC540020700C0020CA61B3360AD7A33C1E
:1052C000801A060000580040003800405854002062
:1052D0006C540020905500209455002084550020E7
:1052E000745400209C55002060540020A470BD3EE2
:1052F000000080BEC3F51CC16C0C0020002000F033
:1053000015FB0028FAD00023CBF8203001230493AA
:10531000002000F06DFEBA48FEF78AFCB948FEF79F
:10532000F9FCB94800F098FE7368D6F8008003F1E4
:105330000049B6493868C6F80090C6F8048007F0FE
:1053400017FAB34907F0C8FAB149A860DAF80000C3
:1053500007F0C2FAAF492862484607F009FAAE4999
:1053600007F0BAFA7B686861A84903F1004007F0CA
:10537000FFF9A74907F0B0FADAF80830E860A44965
:1053800003F1004007F0A8FA08F100486862A1495B
:10539000404607F0EDF9A04907F09EFABB68A86106
:1053A0009A4903F1004007F0E3F9994907F094FAAC
:1053B000DAF804302861964903F1004007F08CFACE
:1053C000B368A862934903F1004007F0D1F992490C
:1053D00007F082FA914AE86102F11001904802F068
:1053E00005F8DBF814107A68BB6801F100490992EE
:1053F000316872680A93B368E1602261DAF80010DC
:10540000DAF804206361DAF80830D7F800E0DBF856
:1054100018006165A2658049E365CDF820E0CDF80C
:105420001890079007F0A4F97A4907F055FA7D49DA
:10543000804607F04FFB30B140467B4907F040FB08
:1054400008B1002307937449484607F091F9714960
:1054500007F042FA7349804607F03CFB30B1404602
:10546000714907F02DFB08B10023069306AA08A98D
:105470000BA8FFF76BFD66490B9807F02DFA06F0B5
:10548000EDFC5DA3D3E9002306F03CFD07F012F824
:1054900080465F490C98C4F8008007F01DFA06F0BA
:1054A000DDFC55A3D3E9002306F02CFD07F002F83C
:1054B000814657490D98C4F8049007F00DFA06F09C
:1054C000CDFC4DA3D3E9002306F01CFD4AA3D3E98C
:1054D000002306F063FB06F0EDFF03464846A36099
:1054E000059306F0BBFCCDE90201404606F0B6FC90
:1054F000059B80461846894606F0B0FCDDE902238C
:10550000CDE900014946404601F05AFA206720687B
:1055100006F0A4FC80468946606A06F09FFC42467D
:105520004B4601F081FA06F0C5FF6062606806F044
:1055300095FC80468946A06A06F090FC42464B46A0
:1055400001F084FA06F0B6FFA062A06806F086FCBF
:1055500080468946E06A06F081FC42464B4601F0EF
:1055600087FA06F0A7FF226FE062304B002A00F0B6
:10557000FC8000224FF000084FF000095A629A6246
:10558000DA62E06B06F06AFC42464B4601F082FAB2
:1055900006F090FFE063A06A06F060FC8046894652
:1055A000206C06F05BFC42464B4601F073FA06F0B5
:1055B00081FF2064E06A06F051FC80468946606CF9
:1055C00006F04CFC42464B4601F064FA06F072FFCE
:1055D0000F496064DBF8140007F0CAF80E4907F0C1
:1055E000C7F80C4907F078F907F088FA0146104827
:1055F00000F05EFC1EE000BF1F85EB51B89E23400B
:1056000084550020605400209C550020CDCC1C41C6
:1056100000007A44D80F494000003443700C002049
:10562000EC540020000020C00000204074540020F2
:10563000940C01085249DBF8180007F099F8514919
:1056400007F096F8504907F047F907F057FA014676
:105650004E4800F02DFC4A49DBF81C0007F088F8A2
:10566000484907F085F8484907F036F907F046FA47
:105670000146474800F01CFC00F04EFCB86807F0FB
:105680003DFA8146786807F039FA8046386807F0B5
:1056900035FA4B46424601463E4800F009FC00F010
:1056A0003BFC0D9807F02AFA81460C9807F026FA81
:1056B00080460B9807F022FA4B4642460146364890
:1056C00000F0F6FB00F028FC2D49606C07F050F864
:1056D00007F014FA2A498146206C07F049F807F0D0
:1056E0000DFA27498046E06B07F042F807F006FA0A
:1056F0004B4642460146294800F0DAFB284800F0B4
:10570000D7FB00F009FCDBF82030264AB3F5FA7F1E
:1057100031D0013313624FF00008A5E500234FF0AC
:105720007E51002223606360A360E36023616361B4
:105730006362A362E362A361E3612362E3632364C0
:105740006364A364E36423656365A365E36523631E
:105750006363A3636366A366E36621662267002032
:1057600000F0E4F80028FAD094E5586A06F076FBD9
:105770008046894605E7002313624FF0010873E570
:1057800000007A4400003443D80F4940AC0C0108B3
:10579000C40C0108DC0C0108000D01081C0D0108F7
:1057A000380D01086C0C002010B50320FFF706F936
:1057B0000346064C02464FF488710548236001F009
:1057C0007FFABDE810400320FFF744B8900C00209A
:1057D000A8550020014B1860704700BFD800424216
:1057E000214A10B4536803F00C03042B06D0082B95
:1057F00025D01BB11D4A1346026001E01B4B03601C
:10580000194A1B495468C4F303140C5DE340436018
:105810005468C4F302240C5D23FA04F484605468D1
:10582000C4F3C2240C5DE340C360526810BCC2F3F1
:1058300081320A44127CB3FBF2F303617047536870
:105840005168C3F38343C90303F1020307D55268C8
:10585000920304D4054A02FB03F30360D0E7054A30
:1058600002FB03F30360CBE70010024000127A0052
:105870000000002000093D0029B9054A536923EAC8
:10588000000050617047024B5A69104358617047DD
:105890000010024029B9054A936923EA000090618B
:1058A0007047024B9A69104398617047001002409C
:1058B00029B9054AD36923EA0000D0617047024B39
:1058C000DA691043D86170470010024070B506468F
:1058D0000C4684B004200121FFF7DCFF124B4FF48B
:1058E000806553F8260004230DEB0301ADF8045046
:1058F0008DF80730FFF790F8012C01D004B070BD8F
:105900000A210020FFF7AEFA082300220DEB030066
:1059100002958DF80E408DF80C208DF80D3000F0BA
:1059200011F804B070BD00BF1400002008B5044B8E
:105930004FF4806153F82000FFF754FA08BD00BF10
:1059400014000020837933B370B406681B4BF44312
:105950001D68027925401D60596802F1804221408E
:10596000596002F582321468417934431460046846
:105970009868E54328409860DA68102902EA050231
:10598000DA6013D001F1804303F582331A681443BF
:105990001C6070BC70470379016803F1804303F514
:1059A00082331A6822EA01021A6070479A68224319
:1059B0009A60DA681443DC6070BC704700040140F0
:1059C000054B1A685B69034004D0024214BF0120F2
:1059D000002070471846704700040140014B586191
:1059E000704700BF00040140034AD2F8E830013399
:1059F000C2F8E830704700BF940C00202DE9F84F42
:105A0000444DD5F8E830002B4ED1D5F8F0300133B5
:105A1000C5F8F030D5F8F080B8F1000F52D0DFF8BB
:105A2000F8A0DAF80030984567D33A4F002607F11E
:105A3000080925E0D7F8D030DB68DC68636804F13A
:105A4000040B984523D3584600F0CCFBA36A04F11D
:105A500018000BB100F0C6FBE36AD5F8E02003EBB9
:105A600083009342594609EB800088BFC7F8E030B5
:105A700000F0AAFB6B68E26ADB6A9A4228BF012643
:105A8000D5F8D0301B68002BD4D14FF0FF33CAF8C3
:105A900000306B68DB6A03EB830305EB83039B68D1
:105AA000022B28BF012605E0D5F8F8300026013387
:105AB000C5F8F830D5F8EC30002B18BF0126304679
:105AC000BDE8F88FD5F8D030D5F8D420C5F8D0206F
:105AD000C5F8D430D5F8F4300133C5F8F430D5F832
:105AE000D0301B685BB9DFF830A04FF0FF33CAF845
:105AF0000030DAF80030984597D20026C9E7D5F88B
:105B0000D030DFF814A0DB68DB685B68CAF80030CF
:105B100087E700BF940C0020180000202DE9F8430F
:105B20002E4D00F0B3FBD5F8E830013BC5F8E83066
:105B3000D5F8E830002B43D12B68002B40D02F46FE
:105B400005F108091DE0D7F8A030DC68261D04F136
:105B5000180000F047FB304600F044FBE36AD7F83A
:105B6000E02003EB83009342314609EB800088BFBD
:105B7000C7F8E03000F028FB6B68E26ADB6A9A4203
:105B800024D2D5F89430DFF85480002BDBD1D8F83C
:105B9000F8308BB1D8F8F83073B10124FFF72EFF3D
:105BA00008B1C5F8EC40D5F8F830013BC5F8F8303D
:105BB000D5F8F830002BF1D1D5F8EC40012C09D004
:105BC000002400F075FB2046BDE8F8830123C8F8E7
:105BD000EC30D6E700F046FBF3E700BF940C002062
:105BE000174A10B4D2F8E8300BBBC2F8EC3004E02E
:105BF000D2F8E030013BC2F8E030D2F8E03003EBFD
:105C0000830302EB83039B68002BF1D0D2F8E030D2
:105C10000C4903EB83039B00D018C4680B446168F4
:105C20009942C16008D0CB6810BC53607047012313
:105C3000C2F8EC3010BC70474968C160F3E700BFA0
:105C4000940C0020A40C0020C36870B5DD68164CCD
:105C500005F11806304600F0C5FAD4F8E830EBB983
:105C60002E1D304600F0BEFAEB6AD4F8E0200F4853
:105C7000934288BFC4F8E03003EB8303314600EB66
:105C8000830000F0A1FA6368EA6ADB6A06499A4277
:105C900086BF0120C1F8EC00002070BD314604F140
:105CA000940000F091FAEEE7940C00209C0C002088
:105CB00018B338B5C26A436C9A421DD00446051D1C
:105CC000284600F08FFAA269636C002AA4BFC3F1D2
:105CD0000502A261094A0A48D2F8E010E3628B4249
:105CE00088BFC2F8E03003EB8303294600EB830052
:105CF000BDE8384000F068BA38BD7047940C002009
:105D00009C0C002010B5012182B00420FFF7C2FDD9
:105D10004FF400740322102301A918488DF80620BF
:105D20008DF80730ADF80440FEF776FE21461348A3
:105D3000FFF75EF80020FFF74DFD01214FF4000052
:105D4000FFF7B6FD4FF4407000F044FC142400222D
:105D50000C21012368468DF802208DF801108DF882
:105D600003308DF8004000F03FFCFFF791F8044A43
:105D70001368052BFCD102B010BD00BF0008014024
:105D8000680C00204FF4007110B90348FFF732B8D7
:105D90000148FFF72DB800BF00080140404B414AC1
:105DA00041491B68126809685B1877D0180F3F4992
:105DB000092894BF303037301B0110B4887000249C
:105DC000180F0928CC70394C94BF303037301B0184
:105DD0002071180F002409284C71344C94BF3030C6
:105DE00037301B01A071180F00240928CC712F4CEB
:105DF00094BF303037301B012072180F002409285F
:105E00004C722A4C94BF303037301B01A072180FEF
:105E100000240928CC72254C94BF303037301B0148
:105E20002073180F002409284C73204C94BF303085
:105E30003730C3F30363A0730020092BC8731B48DA
:105E400094BF303337330374130F0020092B487489
:105E5000164894BF3033373312018374130F002078
:105E6000092BC874114894BF3033373312010375BE
:105E7000130F0020092B48750C4894BF303337337B
:105E8000C2F3036283750023CB75092A074B94BFC5
:105E9000303237321A7600234B7610BC704700BF81
:105EA000E8F7FF1FECF7FF1FF0F7FF1F5C00002073
:105EB0000FB430B5C3B046AB53F8041B02AC1A465E
:105EC0002046019308F066FB237803B300230133D7
:105ED000DBB2E25C002AFAD10E4D99B22A6883B196
:105EE000013989B2013123460C44511C13F8010BCE
:105EF000B1F5007F2A44107114BF0A4600229C426B
:105F0000F3D12A6043B0BDE8304004B07047014D82
:105F10002A68F6E7900D0020274A2DE9F047D2F8CD
:105F2000043217689F4244D09F42154602F104088C
:105F30004FF0000929D037D2C3F500713F294FF047
:105F4000010626D8CA18B2F5007FC5F80892C5F830
:105F500004221FFA83FA8CB228D000260120FEF713
:105F60005BFC3028FAD008EB0A002246C02100F082
:105F700093FE01202146FEF7F1FC0120FEF756FCBE
:105F8000BEB1D5F804329F42D5D10026F91A3F2977
:105F9000D8D9403903F14002C5F80812C5F80422E7
:105FA0001FFA83FA4024D9E70126EFE7C5F80492E7
:105FB000D4E7BDE8F08700BF900D002030B505465E
:105FC00083B001210420FFF765FC084B102253F831
:105FD00025000224032301A9ADF804408DF8072011
:105FE0008DF80630FEF718FD03B030BD1C00002010
:105FF000024B022253F820301A6170471C00002027
:10600000024B022253F820305A6170471C000020D6
:10601000F0B5017907784578C478827843790D4ED8
:1060200083B03D430C4315431C4330460DF106013C
:10603000012320228DF806508DF8074000F026FC41
:106040003046012323220DF1070100F01FFC03B0AD
:10605000F0BD00BF00380040F0B587B00123232217
:106060000DF107010446304800F0B0FB062304A9F7
:1060700028222D4800F0AAFB9DF807305B0640D58A
:106080009DF810709DF811109DF812609DF8132076
:106090009DF814009DF8153003EB002301EB072158
:1060A00002EB0622ADF80810ADF80A20ADF80C306E
:1060B00004A9012323221C4800F088FB9DF810301E
:1060C00003F03003102B2DD0302B29D033B3BDF982
:1060D000080006F0F9FA294606F0FEFB2060BDF93B
:1060E0000A0006F0F1FA294606F0F6FB6060BDF9F9
:1060F0000C0006F0E9FA294606F0EEFBA06007B0B6
:10610000F0BD9DF811709DF810109DF813609DF87A
:1061100012209DF815009DF81430BDE7034DD6E719
:10612000034DD4E7034DD2E700380040EC91E44240
:106130005C8F644154926442154970B50B68154CEC
:106140009BB2154D238022882B881A40900507D5D5
:106150004FF6FF5211480A6002780132D2B2027043
:1061600022881A4012040ED4228802F4806213425C
:1061700000D170BD4FF6FF31BDE87040044A084BB6
:1061800011605B681847FEF7F3F82B88ECE700BF57
:10619000445C0040E8550020545400209C0F00202F
:1061A0008000002010B40549054C064A00204FF439
:1061B000064320600B8010BC1360704754540020CD
:1061C000445C0040405C004090E80C0010B49C68C7
:1061D00001328C609C684B606160996010BC086102
:1061E0000260704743688168026910B499608168F1
:1061F00054684B601368A04208BF5160013B002106
:10620000016110BC18461360704700BF044A05497D
:106210001368002B08BF0B461844106018467047DF
:10622000A00F0020405A0020704700BFFEE700BFCB
:10623000FEE700BFFEE700BFFEE700BF704700BFFC
:10624000074B19680868B0E8F00F80F30988BFF3BE
:106250006F8F4FF0000080F311884EF00D0E7047E5
:10626000980C0020044B4FF080521A60BFF34F8F00
:10627000BFF36F8F704700BF04ED00E0EFF31180B4
:106280004FF0BF0181F311887047002008B5FFF778
:10629000F5FF044A136801331360BFF34F8FBFF358
:1062A0006F8F08BD5800002080F31188704700BF31
:1062B000034B18680138186000B17047FFF7F4BF4E
:1062C00058000020EFF30980BFF36F8F0D4B1A6861
:1062D00020E9F00F10602DE908404FF0BF0080F377
:1062E0001188FFF77DFC4FF0000080F31188BDE8B6
:1062F000084019680868B0E8F00F80F30988BFF318
:106300006F8F7047980C002008B5FFF7B7FFFFF7B5
:1063100075FB18B1044B4FF080521A600020BDE8A5
:106320000840FFF7C1BF00BF04ED00E02DE9F041D8
:106330000446884617461D46FFF7A0FFA16BE26B97
:10634000064691421DD3022D06D000253046FFF7A8
:10635000ABFF2846BDE8F081226C2ABB2568002DE2
:106360004ED0A36B0133A363A36C013334D0A36C71
:1063700001252B443046A364FFF796FF2846BDE86D
:10638000F081226C002AE9D04146002D3DD1A06861
:1063900006F0E0FBA168236C62680B449342A360A3
:1063A000DFD32368A360DCE74146E06806F0D2FB58
:1063B000236CE2685B4221681A448A42E26004D29C
:1063C00062681344E360022DCBD1A36B002BC8D0CD
:1063D000A36B013BA363C4E7636A33B9304601256D
:1063E000FFF762FF2846BDE8F08104F12400FFF7C3
:1063F0002BFC0028F2D0002FF0D001253D60A5E74E
:106400006068FFF755FC6560ABE7E06806F0A2FB4B
:10641000236CE2685B4221681A448A42E260D2D26D
:10642000CEE700BF4FF6FE7203683A491A40884231
:106430004FF000030260036043608360C36027D0B5
:10644000354B98422AD0354B98422DD0344B984248
:1064500030D0344B984239D0334B98423CD0334BF8
:1064600098420FD0324B98423CD0324B98423FD0AA
:10647000314B984242D0314B984245D0304B9842F4
:106480001ED070472F4A536843F0706353607047C3
:106490002C4A536843F00F0353607047294A5368EE
:1064A00043F0F00353607047264A536843F4706327
:1064B00053607047234A536843F4704353607047F6
:1064C000214A536843F470235360DAE71D4A536846
:1064D00043F47023536070471A4A536843F47003BF
:1064E00053607047184A536843F00F035360704776
:1064F000154A536843F0F00353607047124A5368DB
:1065000043F47063536070470F4A536843F4704319
:1065100053607047080002401C00024030000240F7
:1065200044000240580002406C00024080000240DB
:10653000080402401C0402403004024044040240AB
:106540005804024000000240000402400A6A70B48D
:106550008D680B692A434D6913438A691D43CB69D2
:1065600045EA020402684D6A23438C6A1D4322F403
:10657000FF43CE684A682C4323F070030D68234321
:10658000036046608560C26070BC704729B94FF6F1
:10659000FE730268134003607047036843F0010311
:1065A00003607047C3004CBF034B044B1B68184289
:1065B00014BF012000207047000402400000024088
:1065C000C3004CBF014B024B5860704700040240AF
:1065D0000000024040F0BF60024B40F40030D86041
:1065E000704700BF00ED00E0C3785BB9037801217C
:1065F0005A09164803F01F03203201FA03F340F84A
:1066000022307047124B30B4D9688278C94344783D
:10661000C1F302210F23C1F10405CB40AC4013406C
:10662000027823431B0102F16042DBB202F56142B2
:1066300082F800330378012203F01F0003495B094D
:10664000824041F8232030BC704700BF00E100E0E9
:1066500000ED00E021F0604121F07F01014B084393
:106660009860704700ED00E0F0B50446012108464F
:1066700087B0FFF70FF9524B01219C4250D04FF4E5
:106680008050FFF707F901210420FFF703F90326E3
:10669000A022182369464B48ADF800208DF803303E
:1066A0008DF80260FEF7B8F9402204236946454898
:1066B000ADF800208DF80330FEF7AEF94FF482708C
:1066C00000230722082501A9ADF806004FF4007742
:1066D0002046ADF80430ADF80830ADF80A30ADF81A
:1066E0000C30ADF81230ADF81050ADF81420102574
:1066F000ADF80E7000F028F9694632488DF8026056
:106700008DF80350ADF80050FEF786F929462D4864
:10671000FEF76EFB2046012100F036F907B0F0BD10
:106720004FF48040FFF7C4F801210820FFF7B2F8CA
:10673000032669464FF4204218232348ADF8002071
:106740008DF803308DF80260FEF766F969464FF464
:10675000804204231C48ADF800208DF80330FEF77A
:106760005BF94FF482700023072201A9ADF80600FF
:106770004FF4007720460825ADF80430ADF8083016
:10678000ADF80A30ADF80C30ADF81230ADF810505D
:10679000ADF814204FF48055ADF80E7000F0D4F829
:1067A0006946102308488DF802608DF80330ADF873
:1067B0000050FEF731F929460348FEF719FBA9E717
:1067C0000038004000080140000C0140F8B5012BE2
:1067D0001E462B4B96BF02F0BF0742F0C00747F0A2
:1067E0008007984204460D4607BF26484FF4805163
:1067F00010212548FEF7FEFA72B60221204600F06D
:10680000D7F80028F9D03946204600F0CBF801210E
:10681000204600F0CDF80028F9D062B6204600F0FE
:10682000C3F8E6B1013EF6B201362E4472B602213B
:10683000204600F0BDF80028F9D0FF21204600F0E6
:10684000B1F80121204600F0B3F80028F9D062B673
:10685000204600F0A9F805F8010BB542E6D1084B37
:106860009C4205D0BDE8F84010210748FEF7C0BAA9
:106870004FF480510348BDE8F840FEF7B9BA00BFB5
:1068800000380040000C014000080140F8B5012B21
:106890001E462A4B02F03F0788BF47F04007984248
:1068A00004460D4607BF26484FF480511021254865
:1068B000FEF7A0FA72B60221204600F079F800280F
:1068C000F9D03946204600F06DF80121204600F04D
:1068D0006FF80028F9D062B6204600F065F8E6B1FE
:1068E000771EFFB22F44013D15F8016F72B60221E9
:1068F000204600F05DF80028F9D03146204600F02F
:1069000051F80121204600F053F80028F9D062B672
:10691000204600F049F8BD42E6D1084B9C4205D024
:10692000BDE8F84010210748FEF762BA4FF48051E5
:106930000348BDE8F840FEF75BBA00BF00380040EE
:10694000000C0140000801404A8830B40C888B8854
:106950002243CC881A430B8922434C898D891A43E0
:1069600022430388CC892A43224303F4415313432F
:106970009BB20380838B0A8A23F400631B041B0CE5
:10698000838330BC02827047038829B923F0400317
:106990001B041B0C038070479BB243F04003038031
:1069A000704700BF81817047808980B2704700BF07
:1069B0000389194214BF0120002070470000000025
:1069C000F8B516461F4602460B4605F09BFA3246BE
:1069D00004460D463B463046394605F093FA0246DA
:1069E0000B462046294605F0DBF8DDE90623044680
:1069F0000D461046194605F085FA02460B4620461C
:106A0000294605F0CDF803F00FFA05A3D3E90023DA
:106A100005F0F4FC003018BF0120F8BDAFF3008092
:106A2000666666666666E63FF8B516461F46044625
:106A30000D460022044B3046394605F08DFB2246B8
:106A40002B4605F0ADF8F8BD00005940F8B51646E4
:106A50001F4604460D460022044B3046394605F0D9
:106A60007BFB22462B4605F09BF8F8BD0000594001
:106A7000F8B516461F4604460D460022044B304624
:106A8000394605F069FB22462B4605F089F8F8BD2A
:106A900000005940F8B516461F4604460D46002230
:106AA000044B3046394605F057FB22462B4605F08D
:106AB00077F8F8BD00005940F0B504460D4687B0A0
:106AC000868801A8FEF78CFE314F039B26F03F0617
:106AD000A7FB03273604BF0C360CB8B20643A680CA
:106AE00021882A6821F001012A4E0904090CB242CA
:106AF000218024D85200B3FBF2F39BB2032B00F1A8
:106B0000010098BF04232084A3832188AE8889B222
:106B100041F00101218023886A8923F4816323F0F5
:106B20000203A88929891B0432431B0C134340EA42
:106B300001029BB292B22380228107B0F0BD4BF6D6
:106B4000FF71E88888421DD002EB820202EB8202CC
:106B5000B3FBF2F39BB243F48043C3F30B020AB9D5
:106B600043F001034FF4967202FB07F70A4AF91744
:106B700082FB0702C1EBA212013292B243F400433E
:106B80002284C1E702EB4200B3FBF0F39BB2E4E7DF
:106B900083DE1B43A0860100D34D6210038829B910
:106BA00023F001031B041B0C038070479BB243F0CE
:106BB00001030380704700BF838829B923F4006371
:106BC0001B041B0C838070479BB243F400638380DB
:106BD000704700BF038829B923F480731B041B0C82
:106BE000038070479BB243F480730380704700BFFB
:106BF000038829B923F400731B041B0C038070471E
:106C00009BB243F400730380704700BF038829B927
:106C100023F480631B041B0C038070479BB243F476
:106C200080630380704700BF0182704722B901F082
:106C3000FE0189B20182704741F0010189B20182EF
:106C4000704700BF838A008B9BB243EA004321F068
:106C50007F4203EA0200401AB0FA80F04009704710
:106C600082B000230A0F0093019301900092009BD1
:106C700021F07F4153B1019B14330193019B1B68A9
:106C8000194214BF0120002002B07047019B090C7B
:106C900018330193F2E700BF013252100ED010B446
:106CA00001F1005101F540514900002330F8024B39
:106CB00021F8234001339A42F8D110BC704700BF3D
:106CC00001F10051013201F5405152104FEA4101EA
:106CD00005D051F8043B013A20F8023BF9D1704746
:106CE000034B9B7A13B1034B05221A60704700BF18
:106CF00030540020680C0020014B04221A607047B9
:106D0000680C0020034B1A78202A04BF00221A7056
:106D1000704700BFA40F0020704700BF212810B5A6
:106D200004D02028034610D0022010BD0E4B1A6854
:106D3000137803F07F03212BF6D10C4900249161D5
:106D4000548220468847204610BD074A12681178B1
:106D500001F07F01212903D0054A0220137010BDE4
:106D6000034804490370E9E750540020016F00080C
:106D7000A40F0020AD6D0008074B1B681B7803F0C3
:106D80007F03212B01D00220704700F0DF00022892
:106D900014BF0220002070475054002009B1022087
:106DA000704701288CBF02200020704708B10348BB
:106DB0007047034B08221B681A8270477800002036
:106DC0005054002010B5FEF7E9FF054B00241B6866
:106DD0009C72FDF709FEFFF7E5F9024B1C6010BD40
:106DE00050540020680C0020334B344A1B68D27981
:106DF00010B500245A729C72DC722046FDF7C2FC6A
:106E000020464FF40071FDF7C5FC20461021FDF728
:106E1000CFFC20464021FDF775FD80212046FDF77F
:106E200061FD2046FDF72AFD254B204693F83410DE
:106E3000FDF7A2FD2046FDF70DFD21460120FDF7DF
:106E4000A9FCC0210120FDF74DFD20210120FDF707
:106E5000AFFC21460120FDF7C5FC4FF4C0610220C4
:106E6000FDF798FC4FF480710220FDF73BFD2146B1
:106E70000220FDF7B7FC20210220FDF799FC2146F6
:106E80000320FDF787FC4FF488710320FDF73AFDDE
:106E900040210320FDF770FD4FF440510320FDF722
:106EA000A1FC21460320FDF783FC2046FCF7ACFD46
:106EB000044B01221A6010BD50540020F40D01084B
:106EC00078000020680C00200149FCF7A9BA00BF37
:106ED000B00000200149FCF7A3BA00BFB8000020B1
:106EE000054B1B68DB78042B04D8044901EBC30174
:106EF000FCF796BA0020704750540020C0000020D4
:106F000008B103487047034B08221B681A82704778
:106F10007800002050540020F8B50446FEF764FDC8
:106F2000284B9A6882B9284E44F2F835304603F16E
:106F3000140121F0070140F82C2F81E821000127DE
:106F40005A60356319609F60002C34D008346207A2
:106F500044F2F6321CBF24F007040834611E91424B
:106F60002ED81B68174803E01A6822B1184613464A
:106F700059688C42F8D8154A934221D01D680A1BE3
:106F8000102A056003F108050DD91E1972605C60B6
:106F900070680C4A00E01A46136859688842FAD8AB
:106FA0002146336016600A4A1368591A1160FEF7C9
:106FB000B5FD2846F8BD2546FEF7B0FD2846F8BDCC
:106FC0000025F4E7A80F002088530020B4530020C8
:106FD00008010020C8B138B50546FEF705FDA5F14A
:106FE000080055F8044C094A00E01A46136859682D
:106FF0008C42FAD8064945F8083C0B6810601C44DE
:107000000C60BDE83840FEF789BD7047A80F00202E
:107010000801002080B586B000AFF860B9607A60E2
:107020004FF007004FF007014FF0000201F0ACFEF7
:10703000024645F23063C2F200031A604FF00700C7
:107040004FF007014FF0020201F09EFE024645F2AA
:107050003463C2F200031A604FF007004FF00701DB
:107060004FF0000201F090FE024645F23863C2F292
:1070700000031A604FF007004FF007014FF00002C5
:1070800001F082FE024645F20463C2F200031A6078
:107090004FF003004FF003014FF0000201F074FEC7
:1070A000024645F20C63C2F200031A604FF003007F
:1070B0004FF003014FF0000201F066FE024645F278
:1070C0001063C2F200031A604FF007004FF0030193
:1070D0004FF0000201F058FE024645F20863C2F28A
:1070E00000031A604FF007004FF003014FF0000259
:1070F00001F04AFE024645F20063C2F200031A6044
:107100004FF00003FB752BE045F23063C2F2000341
:107110001B685A68FB7D4FEA8303D3181A68FB7D0E
:107120004FEA8303D3184CF6CD42C3F6CC521A6013
:1071300045F23863C2F200031B685A68FB7D4FEAD0
:107140008303D3181A68FB7D4FEA8303D31843F2F5
:10715000BD72C3F206521A60FB7D03F10103FB7599
:10716000FB7D062BD0D94FF00003BB7529E045F21B
:107170000C63C2F200031B685A68BB7D4FEA8303AD
:10718000D3181A68BB7D4FEA8303D318FA68D2F884
:107190008C201A6045F21063C2F200031B685A6823
:1071A000BB7D4FEA8303D3181A68BB7D4FEA830384
:1071B000D318FA68D2F890201A60BB7D03F101035E
:1071C000BB75BB7D022BD2D94FF003004FF00701F6
:1071D0004FF0000201F0D8FD024645F2F853C2F22A
:1071E00000031A604FF003004FF007014FF0000258
:1071F00001F0CAFD024645F2FC53C2F200031A60D8
:1072000045F21463C2F200034FF07E521A604FF051
:1072100001037B750CE07A7D45F21463C2F2000332
:107220004FF0000143F822107B7D03F101037B75D1
:107230007B7D062BEFD9FB684FF000021A60FB68DC
:107240004FF000029A60FB684FF00002DA60FB68C2
:107250004FF000021A61FB684FF000025A61FB68B0
:107260004FF000029A61FB684FF00002DA61FB68A0
:107270004FF000021A62FB684FF000025A62FB688E
:107280004FF000029A62BB684FF000021A60BB68C0
:107290004FF000025A60BB684FF000029A60FB6832
:1072A0005B6818464FF0804105F016FB03461A460E
:1072B00045F2F453C2F200031A6045F2EC53C2F2F5
:1072C00000034FF000021A6045F2F053C2F20003CF
:1072D0004FF000021A604FF000033B754BE03B7D1E
:1072E000FA6803F11C034FEA8303D3185A683B7D05
:1072F000F96803F11C034FEA8303CB185B6810465F
:10730000194605F035FA03461A4645F2EC53C2F227
:1073100000031B681046194605F022F903461A4679
:1073200045F2EC53C2F200031A603A7DFB6802F1A9
:10733000200253F82220397DFB6801F1200153F827
:1073400021301046194605F013FA03461A4645F255
:10735000F053C2F200031B681046194605F000F90D
:1073600003461A4645F2F053C2F200031A603B7D11
:1073700003F101033B753B7D022BB0D945F2EC5381
:10738000C2F200031B68184604F068FD02460B4673
:107390001046194602F048FD02460B4610461946B3
:1073A00005F088F8024645F2EC53C2F200031A6079
:1073B00045F2F053C2F200031B68184604F04EFD7C
:1073C00002460B461046194602F02EFD02460B46B9
:1073D0001046194605F06EF8024645F2F053C2F227
:1073E00000031A6007F11807BD4680BDF0B593B0E1
:1073F00000AFF860B9607A60FB681B6803F10102B6
:10740000FB681A60FB685A6945F21463C2F2000314
:107410001B691046194605F0A1F803461A4645F2C5
:10742000F453C2F200031B681046194605F0A0F998
:1074300003463B64FB689A6945F21463C2F2000399
:107440005B691046194605F089F803461A4645F26D
:10745000F453C2F200031B681046194605F088F980
:107460000346FB63FB68DA6945F21463C2F200036A
:107470009B691046194605F071F803461A4645F215
:10748000F453C2F200031B681046194605F070F968
:107490000346BB6345F23463C2F200031B685B68BA
:1074A0001B6803F104033A6C82F000421A6045F253
:1074B0003463C2F200031B685B681B6803F10803B6
:1074C000FA6B82F000421A6045F23463C2F20003A4
:1074D0001B685B681B6803F10C03BA6B82F0004207
:1074E0001A6045F23463C2F200031B685B6803F163
:1074F00004031B683A6C1A6045F23463C2F200035D
:107500001B685B6803F104031B6803F10803BA6B93
:107510001A6045F23463C2F200031B685B6803F132
:1075200004031B6803F10C03FA6B82F000421A603B
:1075300045F23463C2F200031B685B6803F1080381
:107540001B68FA6B1A6045F23463C2F200031B68D1
:107550005B6803F108031B6803F10403BA6B82F054
:1075600000421A6045F23463C2F200031B685B6894
:1075700003F108031B6803F10C033A6C1A6045F22F
:107580003463C2F200031B685B6803F10C031B68E1
:10759000BA6B1A6045F23463C2F200031B685B6881
:1075A00003F10C031B6803F10403FA6B1A6045F244
:1075B0003463C2F200031B685B6803F10C031B68B1
:1075C00003F108033A6C82F000421A6045F234631A
:1075D000C2F200031B685B681B6803F1100445F2EC
:1075E0001463C2F200035A6845F2F453C2F2000376
:1075F0001B681046194605F0BBF80346236045F2A8
:107600003463C2F200031B685B681B6803F1140457
:1076100045F21463C2F200039A6845F2F453C2F2D1
:1076200000031B681046194605F0A2F803462360C4
:1076300045F23463C2F200031B685B681B6803F108
:10764000180445F21463C2F20003DA6845F2F453F9
:10765000C2F200031B681046194605F089F803467C
:10766000236045F23463C2F200031B685B6803F1D8
:1076700004031B6803F1100445F21463C2F2000313
:107680001B6883F0004245F2F453C2F200031B680A
:107690001046194605F06CF80346236045F2346342
:1076A000C2F200031B685B6803F104031B6803F16B
:1076B000140445F21463C2F20003DA6845F2F4538D
:1076C000C2F200031B681046194605F051F8034644
:1076D000236045F23463C2F200031B685B6803F168
:1076E00004031B6803F1180445F21463C2F200039B
:1076F0009B6883F0004245F2F453C2F200031B681A
:107700001046194605F034F80346236045F2346309
:10771000C2F200031B685B6803F108031B6803F1F6
:10772000100445F21463C2F20003DB6883F00042E8
:1077300045F2F453C2F200031B681046194605F0E7
:1077400017F80346236045F23463C2F200031B6856
:107750005B6803F108031B6803F1140445F214632A
:10776000C2F200031B6883F0004245F2F453C2F2F8
:1077700000031B681046194604F0FAFF0346236015
:1077800045F23463C2F200031B685B6803F108032F
:107790001B6803F1180445F21463C2F200035A682F
:1077A00045F2F453C2F200031B681046194604F078
:1077B000DFFF0346236045F23463C2F200031B6817
:1077C0005B6803F10C031B6803F1100445F21463BA
:1077D000C2F200039A6845F2F453C2F200031B6838
:1077E0001046194604F0C4FF0346236045F2346393
:1077F000C2F200031B685B6803F10C031B6803F112
:10780000140445F21463C2F200035B6883F0004283
:1078100045F2F453C2F200031B681046194604F007
:10782000A7FF0346236045F23463C2F200031B68DE
:107830005B6803F10C031B6803F1180445F2146341
:10784000C2F200031B6883F0004245F2F453C2F217
:1078500000031B681046194604F08AFF03462360A4
:1078600045F21463C2F200031C6845F21463C2F2CD
:1078700000035B681846396C04F07AFF0346204623
:10788000194604F06BFE03461C4645F21463C2F22F
:1078900000039B681846F96B04F06AFF0346204614
:1078A000194604F05BFE03461C4645F21463C2F21F
:1078B0000003DB681846B96B04F05AFF0346204604
:1078C000194604F04BFE03467B6245F21463C2F294
:1078D00000035C6845F21463C2F200031B6818469B
:1078E000396C04F045FF03462046194604F038FE83
:1078F00003461C4645F21463C2F20003DB681846D7
:10790000F96B04F035FF03462046194604F026FEC5
:1079100003461C4645F21463C2F200039B681846F6
:10792000B96B04F025FF03462046194604F018FE03
:107930000346BB6245F21463C2F200039C6845F241
:107940001463C2F20003DB681846396C04F010FFC0
:1079500003462046194604F003FE03461C4645F242
:107960001463C2F200031B681846F96B04F000FFB1
:1079700003462046194604F0F3FD03461C4645F233
:107980001463C2F200035B681846B96B04F0F0FEA2
:1079900003462046194604F0E1FD0346FB6245F22A
:1079A0001463C2F20003DC6845F21463C2F2000300
:1079B0009B681846396C04F0DBFE034620461946E6
:1079C00004F0CCFD03461C4645F21463C2F20003EA
:1079D0005B681846F96B04F0CBFE03462046194657
:1079E00004F0BEFD03461C4645F21463C2F20003D8
:1079F0001B681846B96B04F0BBFE034620461946C7
:107A000004F0AEFD03463B634FF000037B6412E0DD
:107A10007B6C4FEA830307F14802D31853F8241C08
:107A200045F21463C2F200037A6C43F822107B6CB7
:107A300003F101037B647B6C032BE9DD45F23063CA
:107A4000C2F20003186845F23463C2F200031968F9
:107A500045F23863C2F200031A6845F20463C2F2C9
:107A600000031B6802F034F8024645F20463C2F2D8
:107A700000031A6045F20463C2F200031A6845F27B
:107A80003063C2F200031B681046194601F08AFAFF
:107A9000FB681B6803F00103002B40F0278445F2CC
:107AA000EC53C2F200031B68184604F0D7F90246F3
:107AB0000B46104619464FF000024FF0404304F0C9
:107AC00021FA02460B4614461D4645F21463C2F2E3
:107AD00000035A6845F21463C2F20003DB681046E3
:107AE000194604F045FE03461E4645F21463C2F2F1
:107AF00000031A6845F21463C2F200039B68104643
:107B0000194604F035FE03463046194604F026FDBA
:107B10000346184604F0A2F902460B4620462946C1
:107B200004F0F0F902460B461046194604F0C2FC78
:107B300003467B6145F2EC53C2F200031B68184612
:107B400004F08CF902460B46104619464FF000022D
:107B50004FF0404304F0D6F902460B4614461D464A
:107B600045F21463C2F200031A6845F21463C2F2CC
:107B700000035B681046194604F0FAFD03461E46F2
:107B800045F21463C2F200039A6845F21463C2F22C
:107B90000003DB681046194604F0EAFD0346304650
:107BA000194604F0DDFC0346184604F057F9024676
:107BB0000B462046294604F0A5F902460B4610461E
:107BC000194604F077FC0346BB6145F2EC53C2F260
:107BD00000031B6883F0004445F21463C2F2000303
:107BE0001A6845F21463C2F200031B681046194676
:107BF00004F0BEFD03461D4645F21463C2F20003C5
:107C00005A6845F21463C2F200035B6810461946D5
:107C100004F0AEFD03462846194604F09FFC0346D7
:107C20001D4645F21463C2F200039A6845F21463DC
:107C3000C2F200039B681046194604F099FD034602
:107C40002846194604F08AFC03461D4645F2146393
:107C5000C2F20003DA6845F21463C2F20003DB6883
:107C60001046194604F084FD03462846194604F0E0
:107C700077FC03462046194604F07AFD0346FB6173
:107C800045F2F853C2F200031B685B681E6845F2B8
:107C9000EC53C2F200031B68184604F0DFF80246FA
:107CA0000B461046194603F07BFF02460B4614466E
:107CB0001D4645F21463C2F200039B68184604F0A7
:107CC000CDF802460B462046294604F01BF9024631
:107CD0000B461046194604F0EDFB0346336045F2AF
:107CE000F853C2F200031B685B681B6803F10406CB
:107CF00045F2EC53C2F200031B68184604F0AEF8DC
:107D000002460B46104619464FF000024FF0404322
:107D100004F0F8F802460B4614461D4645F214637B
:107D2000C2F20003DB68184604F098F802460B46DE
:107D30002046294604F0E6F802460B46104619464E
:107D400004F0B8FB0346336045F2F853C2F2000377
:107D50001B685B681B6803F1080645F2EC53C2F22E
:107D600000031B68184604F079F802460B461046DB
:107D7000194603F015FF02460B4614461D4645F210
:107D80001463C2F200031B68184604F067F8024649
:107D90000B462046294604F0B5F802460B4610462D
:107DA000194604F087FB0346336045F2F853C2F2EC
:107DB00000031B685B681B6803F10C0645F2EC537B
:107DC000C2F200031B68184604F048F802460B464E
:107DD000104619464FF000024FF0404304F092F86D
:107DE00002460B4614461D4645F21463C2F20003D8
:107DF0005B68184604F032F802460B4620462946D6
:107E000004F080F802460B461046194604F052FB77
:107E10000346336045F2F853C2F200031B685B6807
:107E200003F104031E6845F2EC53C2F200031B6821
:107E3000184604F013F802460B46104619464FF058
:107E400000024FF0404304F05DF802460B46144632
:107E50001D4645F21463C2F200035B68184603F046
:107E6000FDFF02460B462046294604F04BF8024629
:107E70000B461046194604F01DFB0346336045F2DD
:107E8000F853C2F200031B685B6803F104031B682C
:107E900003F1040645F2EC53C2F200031B681846D6
:107EA00003F0DCFF02460B46104619464FF0000275
:107EB0004FF0404304F026F802460B4614461D4698
:107EC00045F21463C2F200031B68184603F0C6FFB4
:107ED00002460B462046294604F014F802460B469B
:107EE0001046194604F0E6FA0346336045F2F853AB
:107EF000C2F200031B685B6803F104031B6803F113
:107F0000080645F2EC53C2F200031B68184603F062
:107F1000A5FF02460B46104619464FF000024FF0EF
:107F2000404303F0EFFF02460B4614461D4645F260
:107F30001463C2F20003DB68184603F08FFF0246A9
:107F40000B462046294603F0DDFF02460B4610464D
:107F5000194604F0AFFA0346336045F2F853C2F213
:107F600000031B685B6803F104031B6803F10C0644
:107F700045F2EC53C2F200031B68184603F06EFF93
:107F800002460B46104619464FF000024FF04043A0
:107F900003F0B8FF02460B4614461D4645F2146333
:107FA000C2F200039B68184603F058FF02460B46D6
:107FB0002046294603F0A6FF02460B461046194606
:107FC00004F078FA0346336045F2F853C2F2000336
:107FD0001B685B6803F108031E6845F2EC53C2F2AC
:107FE00000031B68184603F039FF02460B46104693
:107FF00019464FF000024FF0404303F083FF024662
:108000000B4614461D4645F21463C2F200031B687A
:10801000184603F023FF02460B462046294603F08C
:1080200071FF02460B461046194604F043FA034618
:10803000336045F2F853C2F200031B685B6803F13A
:1080400008031B6803F1040645F2EC53C2F2000377
:108050001B68184603F002FF02460B4610461946FD
:1080600003F09EFD02460B4614461D4645F214637E
:10807000C2F200035B68184603F0F0FE02460B46AE
:108080002046294603F03EFF02460B46104619469D
:1080900004F010FA0346336045F2F853C2F20003CD
:1080A0001B685B6803F108031B6803F1080645F2CF
:1080B000EC53C2F200031B68184603F0CFFE0246E1
:1080C0000B461046194603F06BFD02460B4614465C
:1080D0001D4645F21463C2F200039B68184603F084
:1080E000BDFE02460B462046294603F00BFF024622
:1080F0000B461046194604F0DDF90346336045F29D
:10810000F853C2F200031B685B6803F108031B68A5
:1081100003F10C0645F2EC53C2F200031B6818464B
:1081200003F09CFE02460B46104619464FF0000233
:108130004FF0404303F0E6FE02460B4614461D4650
:1081400045F21463C2F20003DB68184603F086FEB2
:1081500002460B462046294603F0D4FE02460B4653
:108160001046194604F0A6F90346336045F2306321
:10817000C2F20003186845F2F853C2F2000319680E
:1081800045F20C63C2F200031A6845F20863C2F2BA
:1081900000031B6801F0CAFC024645F20863C2F204
:1081A00000031A604FF000037B6472E045F2146331
:1081B000C2F200037A6C53F8224045F20863C2F21F
:1081C00000031B685A687B6C4FEA8303D3181B6853
:1081D0001D68FB689A687B691046194604F0BEF971
:1081E00003462846194604F0C3FA03461D4645F2E5
:1081F0000863C2F200031B685A687B6C4FEA830372
:10820000D3181B6803F104031E68FB68DA68BB69B6
:108210001046194604F0A2F903463046194604F008
:10822000A7FA03462846194604F09AF903461D4664
:1082300045F20863C2F200031B685A687B6C4FEA80
:108240008303D3181B6803F108031E68FB681A69CF
:10825000FB691046194604F081F903463046194679
:1082600004F086FA03462846194604F079F90346D5
:108270002046194604F074F90346194645F2146382
:10828000C2F200037A6C43F822107B6C03F1010305
:108290007B647B6C062B89DD45F23063C2F2000300
:1082A000186845F20863C2F20003196845F2F853F2
:1082B000C2F200031A6845F20463C2F200031B68AD
:1082C00001F088FC024645F20463C2F200031A6022
:1082D00045F20463C2F200031A6845F23063C2F249
:1082E00000031B681046194600F05CFEFB681B6823
:1082F00003F00103002B40F0068345F21463C2F241
:1083000000031A6845F21463C2F200031B681046AA
:10831000194604F02DFA03461C4645F21463C2F2D6
:1083200000035A6845F21463C2F200035B6810460A
:10833000194604F01DFA03462046194604F010F9C8
:1083400003461C4645F21463C2F200039A6845F2E4
:108350001463C2F200039B681046194604F008FA41
:1083600003462046194604F0F9F803461C4645F238
:108370001463C2F20003DA6845F21463C2F2000328
:10838000DB681046194604F0F3F903462046194607
:1083900004F0E4F803461A4645F2F053C2F2000333
:1083A0001B681046194604F0E3F903467B6145F269
:1083B000F053C2F200031B681846194604F0D0F8C7
:1083C00003461C4645F21463C2F200035A6845F2A4
:1083D0001463C2F200039B681046194604F0C8F902
:1083E00003461D4645F21463C2F20003DA6845F203
:1083F0001463C2F200031B681046194604F0B8F972
:1084000003462846194604F0A9F8034620461946B3
:1084100004F0AEF90346BB6145F2F053C2F200032B
:108420001B681846194604F09BF803461C4645F2A3
:108430001463C2F200035A6845F21463C2F20003E7
:10844000DB681046194604F093F903461D4645F2D1
:108450001463C2F200039A6845F21463C2F2000387
:108460001B681046194604F083F90346284619464E
:1084700004F076F803462046194604F079F90346DD
:10848000FB6145F2FC53C2F200031B685B681C6889
:1084900045F2F053C2F200031B681846194604F077
:1084A0005FF803461A4645F21463C2F200031B68E4
:1084B0001046194604F05CF90346236045F2FC536C
:1084C000C2F200031B685B681B6803F1040445F2F9
:1084D000F053C2F200031B681846194604F040F836
:1084E00003461A4645F21463C2F200035B68104665
:1084F000194604F03DF90346236045F2FC53C2F2ED
:1085000000031B685B681B6803F1080445F2F05325
:10851000C2F200031B6818464FF0404104F028F9EE
:1085200003461A4645F21463C2F200039B681046E4
:10853000194604F01DF90346236045F2FC53C2F2CC
:1085400000031B685B681B6803F10C0445F2F053E1
:10855000C2F200031B6818464FF0404104F008F9CE
:1085600003461A4645F21463C2F20003DB68104664
:10857000194604F0FDF80346236045F2FC53C2F2AD
:1085800000031B685B6803F104031C6845F2F053A9
:10859000C2F200031B6818464FF0404104F0E8F8AF
:1085A00003461A4645F21463C2F20003DB68104624
:1085B000194604F0DDF80346236045F2FC53C2F28D
:1085C00000031B685B6803F104031B6803F10404E8
:1085D00045F2F053C2F200031B681846194603F037
:1085E000BFFF03461A4645F21463C2F200039B68BC
:1085F0001046194604F0BCF80346236045F2FC53CC
:10860000C2F200031B685B6803F104031B6803F1FB
:10861000080445F2F053C2F200031B6818461946DD
:1086200003F09EFF03461A4645F21463C2F20003AC
:108630005B681046194604F09BF80346236045F238
:10864000FC53C2F200031B685B6803F104031B6860
:1086500003F10C0445F2F053C2F200031B68184604
:108660004FF0404104F084F803461A4645F2146383
:10867000C2F200031B681046194604F079F803465D
:10868000236045F2FC53C2F200031B685B6803F1F0
:1086900008031C6845F2F053C2F200031B68184639
:1086A000194603F05DFF03461A4645F21463C2F211
:1086B00000039B681046194604F05AF803462360ED
:1086C00045F2FC53C2F200031B685B6803F1080328
:1086D0001B6803F1040445F2F053C2F200031B6867
:1086E0001846194603F03CFF03461A4645F2146348
:1086F000C2F20003DB681046194604F039F803465D
:10870000236045F2FC53C2F200031B685B6803F16F
:1087100008031B6803F1080445F2F053C2F200039A
:108720001B681846194603F01BFF03461A4645F21C
:108730001463C2F200031B681046194604F018F8CF
:108740000346236045F2FC53C2F200031B685B68DA
:1087500003F108031B6803F10C0445F2F053C2F265
:1087600000031B681846194603F0FAFE03461A4632
:1087700045F21463C2F200035B681046194603F029
:10878000F7FF0346236045F23063C2F20003186826
:1087900045F2FC53C2F20003196845F21063C2F2BD
:1087A00000031A6845F20063C2F200031B6801F07F
:1087B000BDF9024645F20063C2F200031A604FF0B1
:1087C00000037B6472E045F21463C2F200037A6C2A
:1087D00053F8224045F20063C2F200031B685A6856
:1087E0007B6C4FEA8303D3181B681D68FB681A6A09
:1087F0007B691046194603F0B1FE03462846194628
:1088000003F0B6FF03461D4645F20063C2F20003C3
:108810001B685A687B6C4FEA8303D3181B6803F10B
:1088200004031E68FB685A6ABB691046194603F0C8
:1088300095FE03463046194603F09AFF0346284644
:10884000194603F08DFE03461D4645F20063C2F251
:1088500000031B685A687B6C4FEA8303D3181B68BC
:1088600003F108031E68FB689A6AFB691046194603
:1088700003F074FE03463046194603F079FF0346C1
:108880002846194603F06CFE03462046194603F0BD
:1088900067FE0346194645F21463C2F200037A6C80
:1088A00043F822107B6C03F101037B647B6C062B85
:1088B00089DD45F23063C2F20003186845F20063B7
:1088C000C2F20003196845F2FC53C2F200031A68B1
:1088D00045F20463C2F200031B6801F07BF9024613
:1088E00045F20463C2F200031A6045F20463C2F267
:1088F00000031A6845F23063C2F200031B68104699
:10890000194600F04FFB45F21463C2F200031A68E7
:1089100045F21463C2F200031B681046194603F0C7
:1089200027FF03461C4645F21463C2F200035A684F
:1089300045F21463C2F200035B681046194603F067
:1089400017FF03462046194603F00AFE03461C465D
:1089500045F21463C2F200039A6845F21463C2F24E
:1089600000039B681046194603F002FF03462046A9
:10897000194603F0F5FD03461C4645F21463C2F2A6
:108980000003DA6845F21463C2F20003DB681046A4
:10899000194603F0EDFE03462046194603F0E0FDBC
:1089A0000346184603F05AFA02460B46104619468B
:1089B00001F03AFA02460B464FF000004FF000017A
:1089C000C3F6F07103F0C8FB02460B461046194689
:1089D00003F070FD03467B634FF000037B6422E0ED
:1089E00045F21463C2F200037A6C53F82230184641
:1089F000796B03F0BDFE0346194645F21463C2F2DB
:108A000000037A6C43F8221045F21463C2F20003AB
:108A10007A6C53F822107B687A6C43F822107B6CD6
:108A200003F101037B647B6C032BD9DD45F21463F6
:108A3000C2F200031A6845F21463C2F200035B68D5
:108A40001046194603F094FE03461C4645F2146393
:108A5000C2F200039A6845F21463C2F20003DB68B5
:108A60001046194603F084FE03462046194603F0DB
:108A700077FD03461846194603F072FD0346184673
:108A800003F0ECF904460D4645F21463C2F200030C
:108A90005A6845F21463C2F200035B681046194637
:108AA00003F066FE03461E4645F21463C2F200035D
:108AB0009A6845F21463C2F200039B681046194697
:108AC00003F056FE03463046194603F049FD0346BF
:108AD0001846194603F044FD03464FF07E501946F0
